:10031200012101012201013900014802023B0000D2
:10025D00C204C2057580FFE4F590F5A075B0037575
:10026D009852758780F589438921758DF5D28E75E4
:08027D002201752101C20322D8
:0D033100C28C758ABF758CFCC28DD28C22E7
:100202008521A0309825D3E521940A7480948050EA
:100212000D74232521F8A6990521C298800DE52D9C
:0E022200B440037F0122D2047F02227F00221B
:1002AB0030031C309919742E2522F8E6F599E522B6
:1002BB00640A7007C20375220180020522C29922CB
:0E032300208D06308DFD7F0122D2057F022243
:060285007B007A00793BCA
:10028B00E94A70037FFF22120150FDD3EF9DEE95DB
:10029B00F0400AE475F00112017B7F00227F0122FE
:1002E600200707200004D200D32220070530000291
:0502F600C322C200C399
:0102FB0022E0
:1002FC00300607200104D201D3223006053001025A
:05030C00C322C201C381
:0103110022C9
:10023000C290C291C292C293C294C295C296C29712
:10024000C2A0C2A1C2A2C2A3C2A4C2A5C2A6C2A782
:0D025000C2B2C2B3C2B4C2B5C2B6C2B722B8
:05034E00C290C2A322D1
:09033E00C2B3C2B4C2B5C2B622BA
:0602CB0012034E12033E77
:1002D100C291C292C293C294C295C296C297C2A061
:0502E100C2A1C2A2222F
:05035300D2A7C2A622A2
:05035800C2A7D2A6229D
:05035D00C2A7C2A622A8
:100003008B088A09890AE54960030200C3E54A248B
:10001300F6602324F6603C24F6605424F6606C24D6
:10002300F670030200B0243260030200C3D290755D
:100033004900754A0A22A28792071202E650040574
:1000430039D294E539D395484076E4F539F54975C5
:100053004A14227FA07E0F1202858F4DEF64017038
:100063005FF54DF53BF53CC290F549754A1E227F7D
:10007300E87E031202858F4DEF64017043F54DF561
:100083003BF53CD2A1F549754A28227B007A0079D9
:100093003B7FDC7E0512028B8F4DEF64017021F5EF
:1000A3004DF53BF53CC2A1F549754A3222300209B0
:1000B300C202754900754A3C22D202E4F549F54A69
:0100C300221A
:070347008B088A09890A22D4
:1001C90012025D120230120331308022308617127A
:1001D90003587B007A00793A1200037B007A007990
:1001E9003A120347800E12035D1202CB80061202F7
:0901F900CB12035312032380CD45
:030000000200C437
:0C00C400787FE4F6D8FD75814D02010B39
:10015000BB010A89828A83E0F5F0A3E0225006877A
:10016000F009E71922BBFE07E3F5F009E31922893C
:0B017000828A83E493F5F0740193226F
:10017B00BB010789828A830201B3500B09C5F027A3
:10018B00F7C5F01937F722BBFE0D09F8E325F0F39D
:10019B00C5F019E338F322F889828A837401932519
:0801AB00F0C5F0F8E4933822DE
:1000D0000201C9E493A3F8E493A34003F68001F27C
:1000E00008DFF48029E493A3F85407240CC8C33331
:1000F000C4540F4420C8834004F456800146F6DF00
:10010000E4800B0102040810204080900312E47E7A
:10011000019360BCA3FF543F30E509541FFEE493F4
:10012000A360010ECF54C025E060A840B8E493A3BB
:10013000FAE493A3F8E493A3C8C582C8CAC583CAE6
:10014000F0A3C8C582C8CAC583CADFE9DEE780BE9E
:0103220000DA
:1001B300C5F0F8A3E028F0C5F0F8E58215827002D7
:0601C3001583E038F02274
:00000001FF
