:1001D80012027812024B1203403080283086171220
:1001E80003677B007A0079091200037B007A0079A3
:1001F80009120356801A12036C12035D12034D1282
:10020800030C800C12035D12034D12030C120362DF
:0502180012033280C159
:100003008B128A138914E50D60030200D2E50E24D6
:10001300F6602324F6603F24F6605D24F6607B24BB
:10002300F670030200BF243260030200D2D290753F
:100033000D00750E0A22A28792071202E0500405F2
:1000430008D294E508D3950C50030200D2E4F508D6
:10005300F50D750E14227B007A00790A7FA07E0FBE
:100063001202C08F11EF64017065F511F50AF50BEB
:10007300C290F50D750E1E227B007A00790A7FE887
:100083007E031202C08F11EF64017043F511F50A6C
:10009300F50BD2A1F50D750E28227B007A00790AA3
:1000A3007FDC7E051202C08F11EF64017021F51110
:1000B300F50AF50BC2A1F50D750E3222300609C201
:1000C30006750D00750E3C22D206E4F50DF50E22E1
:070356008B128A13891422A7
:10024B00C290C291C292C293C294C295C296C297F7
:10025B00C2A0C2A1C2A2C2A3C2A4C2A5C2A6C2A767
:0D026B00C2B2C2B3C2B4C2B5C2B6C2B7229D
:05035D00C290C2A322C2
:09034D00C2B3C2B4C2B5C2B622AB
:10030C00C291C292C293C294C295C296C297C2A025
:05031C00C2A1C2A222F3
:05036200D2A7C2A62293
:05036700C2A7D2A6228E
:05036C00C2A7C2A62299
:1002E000200707200304D203D3222007053003028E
:0502F000C322C203C39C
:0102F50022E6
:1002F600300507200404D204D32230050530040259
:05030600C322C204C384
:01030B0022CF
:060321000121010122018F
:10027800C201C2027580FFE4F590F5A075B0037560
:100288009852758780F589438921758DF5D28E75C9
:080298002201752101C20022C0
:0D034000C28C758ABF758CFCC28DD28C22D8
:10021D008521A0309825D3E521940A7480948050CF
:10022D000D74232521F8A6990521C298800DE52D81
:0E023D00B440037F0122D2017F02227F002203
:1002A00030001C309919742E2522F8E6F599E522C4
:1002B000640A7007C20075220180020522C29922D9
:0E033200208D06308DFD7F0122D2027F022237
:1002C000E94A70037FFF2212015FFDD3EF9DEE9597
:1002D000F0400AE475F00112018A7F00227F0122BA
:0A032700010800010C02020A0000A8
:030000000200D328
:0C00D300787FE4F6D8FD75814302011A25
:10015F00BB010A89828A83E0F5F0A3E0225006876B
:10016F00F009E71922BBFE07E3F5F009E31922892D
:0B017F00828A83E493F5F07401932260
:10018A00BB010789828A830201C2500B09C5F02785
:10019A00F7C5F01937F722BBFE0D09F8E325F0F38E
:1001AA00C5F019E338F322F889828A83740193250A
:0801BA00F0C5F0F8E4933822CF
:1000DF000201D8E493A3F8E493A34003F68001F25E
:1000EF0008DFF48029E493A3F85407240CC8C33322
:1000FF00C4540F4420C8834004F456800146F6DFF1
:10010F00E4800B0102040810204080900321E47E5C
:10011F00019360BCA3FF543F30E509541FFEE493E5
:10012F00A360010ECF54C025E060A840B8E493A3AC
:10013F00FAE493A3F8E493A3C8C582C8CAC583CAD7
:10014F00F0A3C8C582C8CAC583CADFE9DEE780BE8F
:0103310000CB
:1001C200C5F0F8A3E028F0C5F0F8E58215827002C8
:0601D2001583E038F02265
:00000001FF
